:100000000A128A11FC2F00308A000408840A820731
:100010000034413468346D346534643420344F34F2
:080020006D34613472340034C8
:100B30000630F5007508F0009F300A128A11A325CF
:100B40000A128A110800F4007008F1007408F2001B
:100B5000F301720884008317731C831371088004E7
:100B60000800F4007008F1007408F200F301720844
:100B700084008317731C8313710880000800F4003D
:100B80007408F100F201710884008317721C83134A
:100B90000130F300700ACE2D0310F30DFF3E031D4C
:100BA000CC2D730800050319D62DD72DD92D013072
:100BB000DA2D00300800F4007008031DE02DE12D4F
:100BC000ED2D80307404F1000030F20071088400D3
:100BD0008317721C83138001FB2DFF30F1008030DE
:100BE0007404F2000030F300720884008317731C51
:100BF0008313710880000800FB00FC01102E7C08A4
:100C00007B0784000A128A1103200A128A110A1231
:100C10008A119A270A128A110130FA007A08FC0711
:100C20007C087B0784000A128A1103200A128A11A9
:100C3000003A031D1C2E1D2EFF2D0800F600710327
:100C4000031D232E242E3A2E0130F200700A2A2E84
:100C50000310F20DFF3E031D282E7208F3007608E4
:100C6000F400F501740884008317751C831373085E
:100C70008004502E0130F200700A402E0310F20D55
:100C8000FF3E031D3E2E7208FF3AF3007608F40083
:100C9000F501740884008317751C8313730880059D
:100CA0000800F6007108031D562E572E702E0130D5
:100CB000F200700A5D2E0310F20DFF3E031D5B2E45
:100CC0007208FF3AF30080307604F4000030F5003B
:100CD000740884008317751C831373088005872E9E
:100CE0000130F200700A762E0310F20DFF3E031D54
:100CF000742E7208F30080307604F4000030F500A2
:100D0000740884008317751C83137308800408001B
:100D10000A128A1198250A128A110A128A11DB26F0
:100D20000A128A1101300A128A11FC250A128A114C
:100D3000F001F10108300A128A1151260A128A11B3
:100D4000F001F00AF101F10A08300A128A11512665
:100D50000A128A11F001F00A08300A128A11BF251E
:100D60000A128A11003A0319B62EB72ECF2EF001BF
:100D7000F101F10A08300A128A111E260A128A119C
:100D8000033083120313A2008A30A1005530A00063
:100D9000A00BC82EA10BC82EA20BC82EAA2EF001A4
:100DA000F10108300A128A111E260A128A11AA2E8F
:100DB0000A128A110028F00108300A128A11DB2574
:100DC0000A128A11F001F10105300A128A11512626
:100DD0000A128A11F001F00AF10105300A128A1193
:100DE00051260A128A11F00108300A128A11B1251F
:100DF0000A128A11F001F00AF10105300A128A1173
:100E00001E260A128A110330FB009730FA00FA0BF3
:100E1000072FFB0B072F0C2F33300A128A113A27AA
:100E20000A128A1132300A128A113A270A128A11DA
:100E300028300A128A113A270A128A110E300A1231
:100E40008A113A270A128A1101300A128A113A27A6
:100E50000A128A110330FB009730FA00FA0B2E2F8A
:100E6000FB0B2E2F332F06300A128A113A270A1253
:100E70008A110800F9007908F039F7007708F000C6
:100E800008300A128A11B1250A128A11F001F10103
:100E900005300A128A111E260A128A11F001F00A80
:100EA000F101F10A05300A128A111E260A128A116E
:100EB0000000F001F00AF10105300A128A111E2625
:100EC0000A128A112130F700F70B642F7908F70016
:100ED00003300310F70DFF3E031D692F0310770D3C
:100EE000F8007808F00008300A128A11B1250A12B9
:100EF0008A11F001F10105300A128A111E260A1228
:100F00008A11F001F00AF101F10A05300A128A1182
:100F10001E260A128A110000F001F00AF1010530C4
:100F20000A128A111E260A128A112130F700F70BC5
:100F3000972F0800F900F001F101F10A05300A12BB
:100F40008A111E260A128A117908F039F7007708EB
:100F5000F00008300A128A11B1250A128A11F00134
:100F6000F101F10A05300A128A111E260A128A11AD
:100F7000F001F00AF101F10A05300A128A111E2669
:100F80000A128A110000F001F00AF10105300A127C
:100F90008A111E260A128A112130F700F70BCE2F74
:100FA0007908F70003300310F70DFF3E031DD32F20
:100FB0000310770DF8007808F00008300A128A1143
:100FC000B1250A128A11F001F00AF101F10A053087
:100FD0000A128A111E260A128A110000F001F00A74
:100FE000F10105300A128A111E260A128A112130D7
:100FF000F700F70BF92F080083010A128A11882ED7
:08400000FF3FFF3FFF3FFF3FC0
:02400E00FF3F72
:00000001FF
