:060000000A128A11FC2F18
:100E40000630F5007508F0009F300A128A112B2732
:100E50000A128A110800F4007008F1007408F20008
:100E6000F301720884008317731C831371088004D4
:100E70000800F4007408F100F2017108840083177F
:100E8000721C83130130F300700A482F0310F30D16
:100E9000FF3E031D462F730800050319502F512FE5
:100EA000532F0130542F00300800F6007103031D4A
:100EB0005A2F5B2F712F0130F200700A612F03103F
:100EC000F20DFF3E031D5F2F7208F3007608F40059
:100ED000F501740884008317751C8313730880045C
:100EE000872F0130F200700A772F0310F20DFF3EBA
:100EF000031D752F7208FF3AF3007608F400F50120
:100F0000740884008317751C831373088005080018
:100F1000F6007108031D8D2F8E2FA72F0130F200D0
:100F2000700A942F0310F20DFF3E031D922F7208DA
:100F3000FF3AF30080307604F4000030F5007408C6
:100F400084008317751C831373088005BE2F01303E
:100F5000F200700AAD2F0310F20DFF3E031DAB2F00
:100F60007208F30080307604F4000030F500740855
:100F700084008317751C83137308800408000A1209
:100F80008A1120270A128A11F001F00AF101F10AF0
:100F900005300A128A1188270A128A11F001F00A14
:100FA000F10106300A128A1188270A128A11F0010B
:100FB000F00A05300A128A1139270A128A11003AFA
:100FC0000319E32FE42FEE2FF001F00AF1010630B0
:100FD0000A128A1155270A128A11D72FF001F00A36
:100FE000F101F10A06300A128A1155270A128A11F4
:100FF000D72F0A128A11002883010A128A11BF2FE3
:08400000FF3FFF3FFF3FFF3FC0
:02400E00FF3F72
:00000001FF
